{
  "_format": "hh-sol-artifact-1",
  "contractName": "CapsuleMarketplace",
  "sourceName": "contracts/NFT.sol",
  "abi": [
    {
      "inputs": [],
      "stateMutability": "nonpayable",
      "type": "constructor"
    },
    {
      "anonymous": false,
      "inputs": [
        {
          "indexed": true,
          "internalType": "address",
          "name": "owner",
          "type": "address"
        },
        {
          "indexed": true,
          "internalType": "address",
          "name": "approved",
          "type": "address"
        },
        {
          "indexed": true,
          "internalType": "uint256",
          "name": "tokenId",
          "type": "uint256"
        }
      ],
      "name": "Approval",
      "type": "event"
    },
    {
      "anonymous": false,
      "inputs": [
        {
          "indexed": true,
          "internalType": "address",
          "name": "owner",
          "type": "address"
        },
        {
          "indexed": true,
          "internalType": "address",
          "name": "operator",
          "type": "address"
        },
        {
          "indexed": false,
          "internalType": "bool",
          "name": "approved",
          "type": "bool"
        }
      ],
      "name": "ApprovalForAll",
      "type": "event"
    },
    {
      "anonymous": false,
      "inputs": [
        {
          "indexed": true,
          "internalType": "address",
          "name": "from",
          "type": "address"
        },
        {
          "indexed": true,
          "internalType": "address",
          "name": "to",
          "type": "address"
        },
        {
          "indexed": true,
          "internalType": "uint256",
          "name": "tokenId",
          "type": "uint256"
        }
      ],
      "name": "Transfer",
      "type": "event"
    },
    {
      "inputs": [
        {
          "internalType": "uint256",
          "name": "",
          "type": "uint256"
        }
      ],
      "name": "NFTs",
      "outputs": [
        {
          "internalType": "string",
          "name": "name",
          "type": "string"
        },
        {
          "internalType": "uint256",
          "name": "price",
          "type": "uint256"
        },
        {
          "internalType": "uint256",
          "name": "likeCount",
          "type": "uint256"
        }
      ],
      "stateMutability": "view",
      "type": "function"
    },
    {
      "inputs": [
        {
          "internalType": "address",
          "name": "to",
          "type": "address"
        },
        {
          "internalType": "uint256",
          "name": "tokenId",
          "type": "uint256"
        }
      ],
      "name": "approve",
      "outputs": [],
      "stateMutability": "nonpayable",
      "type": "function"
    },
    {
      "inputs": [
        {
          "internalType": "address",
          "name": "owner",
          "type": "address"
        }
      ],
      "name": "balanceOf",
      "outputs": [
        {
          "internalType": "uint256",
          "name": "",
          "type": "uint256"
        }
      ],
      "stateMutability": "view",
      "type": "function"
    },
    {
      "inputs": [
        {
          "internalType": "uint256",
          "name": "tokenId",
          "type": "uint256"
        },
        {
          "internalType": "string",
          "name": "name",
          "type": "string"
        },
        {
          "internalType": "uint256",
          "name": "price",
          "type": "uint256"
        },
        {
          "internalType": "uint256",
          "name": "likeCount",
          "type": "uint256"
        }
      ],
      "name": "buyNFT",
      "outputs": [],
      "stateMutability": "payable",
      "type": "function"
    },
    {
      "inputs": [
        {
          "internalType": "uint256",
          "name": "tokenId",
          "type": "uint256"
        }
      ],
      "name": "getApproved",
      "outputs": [
        {
          "internalType": "address",
          "name": "",
          "type": "address"
        }
      ],
      "stateMutability": "view",
      "type": "function"
    },
    {
      "inputs": [],
      "name": "getOwnedNFT",
      "outputs": [
        {
          "internalType": "uint256",
          "name": "",
          "type": "uint256"
        },
        {
          "internalType": "string",
          "name": "",
          "type": "string"
        },
        {
          "internalType": "uint256",
          "name": "",
          "type": "uint256"
        },
        {
          "internalType": "uint256",
          "name": "",
          "type": "uint256"
        }
      ],
      "stateMutability": "view",
      "type": "function"
    },
    {
      "inputs": [
        {
          "internalType": "address",
          "name": "owner",
          "type": "address"
        },
        {
          "internalType": "address",
          "name": "operator",
          "type": "address"
        }
      ],
      "name": "isApprovedForAll",
      "outputs": [
        {
          "internalType": "bool",
          "name": "",
          "type": "bool"
        }
      ],
      "stateMutability": "view",
      "type": "function"
    },
    {
      "inputs": [],
      "name": "name",
      "outputs": [
        {
          "internalType": "string",
          "name": "",
          "type": "string"
        }
      ],
      "stateMutability": "view",
      "type": "function"
    },
    {
      "inputs": [
        {
          "internalType": "uint256",
          "name": "tokenId",
          "type": "uint256"
        }
      ],
      "name": "ownerOf",
      "outputs": [
        {
          "internalType": "address",
          "name": "",
          "type": "address"
        }
      ],
      "stateMutability": "view",
      "type": "function"
    },
    {
      "inputs": [
        {
          "internalType": "address",
          "name": "from",
          "type": "address"
        },
        {
          "internalType": "address",
          "name": "to",
          "type": "address"
        },
        {
          "internalType": "uint256",
          "name": "tokenId",
          "type": "uint256"
        }
      ],
      "name": "safeTransferFrom",
      "outputs": [],
      "stateMutability": "nonpayable",
      "type": "function"
    },
    {
      "inputs": [
        {
          "internalType": "address",
          "name": "from",
          "type": "address"
        },
        {
          "internalType": "address",
          "name": "to",
          "type": "address"
        },
        {
          "internalType": "uint256",
          "name": "tokenId",
          "type": "uint256"
        },
        {
          "internalType": "bytes",
          "name": "data",
          "type": "bytes"
        }
      ],
      "name": "safeTransferFrom",
      "outputs": [],
      "stateMutability": "nonpayable",
      "type": "function"
    },
    {
      "inputs": [
        {
          "internalType": "address",
          "name": "operator",
          "type": "address"
        },
        {
          "internalType": "bool",
          "name": "approved",
          "type": "bool"
        }
      ],
      "name": "setApprovalForAll",
      "outputs": [],
      "stateMutability": "nonpayable",
      "type": "function"
    },
    {
      "inputs": [
        {
          "internalType": "bytes4",
          "name": "interfaceId",
          "type": "bytes4"
        }
      ],
      "name": "supportsInterface",
      "outputs": [
        {
          "internalType": "bool",
          "name": "",
          "type": "bool"
        }
      ],
      "stateMutability": "view",
      "type": "function"
    },
    {
      "inputs": [],
      "name": "symbol",
      "outputs": [
        {
          "internalType": "string",
          "name": "",
          "type": "string"
        }
      ],
      "stateMutability": "view",
      "type": "function"
    },
    {
      "inputs": [
        {
          "internalType": "uint256",
          "name": "tokenId",
          "type": "uint256"
        }
      ],
      "name": "tokenURI",
      "outputs": [
        {
          "internalType": "string",
          "name": "",
          "type": "string"
        }
      ],
      "stateMutability": "view",
      "type": "function"
    },
    {
      "inputs": [
        {
          "internalType": "address",
          "name": "from",
          "type": "address"
        },
        {
          "internalType": "address",
          "name": "to",
          "type": "address"
        },
        {
          "internalType": "uint256",
          "name": "tokenId",
          "type": "uint256"
        }
      ],
      "name": "transferFrom",
      "outputs": [],
      "stateMutability": "nonpayable",
      "type": "function"
    },
    {
      "inputs": [],
      "name": "unBuyNFT",
      "outputs": [],
      "stateMutability": "nonpayable",
      "type": "function"
    }
  ],
  "bytecode": "0x60806040523480156200001157600080fd5b506040518060400160405280601281526020017f43617073756c654d61726b6574706c61636500000000000000000000000000008152506040518060400160405280600481526020017f434e46540000000000000000000000000000000000000000000000000000000081525081600090816200008f919062000324565b508060019081620000a1919062000324565b5050506200040b565b600081519050919050565b7f4e487b7100000000000000000000000000000000000000000000000000000000600052604160045260246000fd5b7f4e487b7100000000000000000000000000000000000000000000000000000000600052602260045260246000fd5b600060028204905060018216806200012c57607f821691505b602082108103620001425762000141620000e4565b5b50919050565b60008190508160005260206000209050919050565b60006020601f8301049050919050565b600082821b905092915050565b600060088302620001ac7fffffffffffffffffffffffffffffffffffffffffffffffffffffffffffffffff826200016d565b620001b886836200016d565b95508019841693508086168417925050509392505050565b6000819050919050565b6000819050919050565b600062000205620001ff620001f984620001d0565b620001da565b620001d0565b9050919050565b6000819050919050565b6200022183620001e4565b6200023962000230826200020c565b8484546200017a565b825550505050565b600090565b6200025062000241565b6200025d81848462000216565b505050565b5b8181101562000285576200027960008262000246565b60018101905062000263565b5050565b601f821115620002d4576200029e8162000148565b620002a9846200015d565b81016020851015620002b9578190505b620002d1620002c8856200015d565b83018262000262565b50505b505050565b600082821c905092915050565b6000620002f960001984600802620002d9565b1980831691505092915050565b6000620003148383620002e6565b9150826002028217905092915050565b6200032f82620000aa565b67ffffffffffffffff8111156200034b576200034a620000b5565b5b62000357825462000113565b6200036482828562000289565b600060209050601f8311600181146200039c576000841562000387578287015190505b62000393858262000306565b86555062000403565b601f198416620003ac8662000148565b60005b82811015620003d657848901518255600182019150602085019450602081019050620003af565b86831015620003f65784890151620003f2601f891682620002e6565b8355505b6001600288020188555050505b505050505050565b613197806200041b6000396000f3fe6080604052600436106100fe5760003560e01c80636352211e11610095578063a22cb46511610064578063a22cb46514610329578063a3c0b95b14610352578063b88d4fde14610391578063c87b56dd146103ba578063e985e9c5146103f7576100fe565b80636352211e1461025657806370a08231146102935780637ab608e2146102d057806395d89b41146102fe576100fe565b8063095ea7b3116100d1578063095ea7b3146101c45780631a24b31d146101ed57806323b872dd1461020457806342842e0e1461022d576100fe565b806301ffc9a71461010357806302bd58661461014057806306fdde031461015c578063081812fc14610187575b600080fd5b34801561010f57600080fd5b5061012a60048036038101906101259190611f23565b610434565b6040516101379190611f6b565b60405180910390f35b61015a60048036038101906101559190612102565b610516565b005b34801561016857600080fd5b50610171610690565b60405161017e9190612204565b60405180910390f35b34801561019357600080fd5b506101ae60048036038101906101a99190612226565b610722565b6040516101bb9190612294565b60405180910390f35b3480156101d057600080fd5b506101eb60048036038101906101e691906122db565b610768565b005b3480156101f957600080fd5b5061020261087f565b005b34801561021057600080fd5b5061022b6004803603810190610226919061231b565b61098d565b005b34801561023957600080fd5b50610254600480360381019061024f919061231b565b6109ed565b005b34801561026257600080fd5b5061027d60048036038101906102789190612226565b610a0d565b60405161028a9190612294565b60405180910390f35b34801561029f57600080fd5b506102ba60048036038101906102b5919061236e565b610a93565b6040516102c791906123aa565b60405180910390f35b3480156102dc57600080fd5b506102e5610b4a565b6040516102f594939291906123c5565b60405180910390f35b34801561030a57600080fd5b50610313610cff565b6040516103209190612204565b60405180910390f35b34801561033557600080fd5b50610350600480360381019061034b919061243d565b610d91565b005b34801561035e57600080fd5b5061037960048036038101906103749190612226565b610da7565b6040516103889392919061247d565b60405180910390f35b34801561039d57600080fd5b506103b860048036038101906103b3919061255c565b610e59565b005b3480156103c657600080fd5b506103e160048036038101906103dc9190612226565b610ebb565b6040516103ee9190612204565b60405180910390f35b34801561040357600080fd5b5061041e600480360381019061041991906125df565b610f23565b60405161042b9190611f6b565b60405180910390f35b60007f80ac58cd000000000000000000000000000000000000000000000000000000007bffffffffffffffffffffffffffffffffffffffffffffffffffffffff1916827bffffffffffffffffffffffffffffffffffffffffffffffffffffffff191614806104ff57507f5b5e139f000000000000000000000000000000000000000000000000000000007bffffffffffffffffffffffffffffffffffffffffffffffffffffffff1916827bffffffffffffffffffffffffffffffffffffffffffffffffffffffff1916145b8061050f575061050e82610fb7565b5b9050919050565b61051f84611021565b1561055f576040517f08c379a00000000000000000000000000000000000000000000000000000000081526004016105569061266b565b60405180910390fd5b6000600660003373ffffffffffffffffffffffffffffffffffffffff1673ffffffffffffffffffffffffffffffffffffffff16815260200190815260200160002054146105e1576040517f08c379a00000000000000000000000000000000000000000000000000000000081526004016105d8906126d7565b60405180910390fd5b6040518060600160405280848152602001838152602001828152506007600086815260200190815260200160002060008201518160000190816106249190612903565b5060208201518160010155604082015181600201559050506106463385611062565b83600660003373ffffffffffffffffffffffffffffffffffffffff1673ffffffffffffffffffffffffffffffffffffffff1681526020019081526020016000208190555050505050565b60606000805461069f90612726565b80601f01602080910402602001604051908101604052809291908181526020018280546106cb90612726565b80156107185780601f106106ed57610100808354040283529160200191610718565b820191906000526020600020905b8154815290600101906020018083116106fb57829003601f168201915b5050505050905090565b600061072d8261127f565b6004600083815260200190815260200160002060009054906101000a900473ffffffffffffffffffffffffffffffffffffffff169050919050565b600061077382610a0d565b90508073ffffffffffffffffffffffffffffffffffffffff168373ffffffffffffffffffffffffffffffffffffffff16036107e3576040517f08c379a00000000000000000000000000000000000000000000000000000000081526004016107da90612a47565b60405180910390fd5b8073ffffffffffffffffffffffffffffffffffffffff166108026112ca565b73ffffffffffffffffffffffffffffffffffffffff16148061083157506108308161082b6112ca565b610f23565b5b610870576040517f08c379a000000000000000000000000000000000000000000000000000000000815260040161086790612ad9565b60405180910390fd5b61087a83836112d2565b505050565b6000600660003373ffffffffffffffffffffffffffffffffffffffff1673ffffffffffffffffffffffffffffffffffffffff16815260200190815260200160002054905060008103610906576040517f08c379a00000000000000000000000000000000000000000000000000000000081526004016108fd90612b45565b60405180910390fd5b600760008281526020019081526020016000206000808201600061092a9190611e5a565b6001820160009055600282016000905550506109458161138b565b6000600660003373ffffffffffffffffffffffffffffffffffffffff1673ffffffffffffffffffffffffffffffffffffffff1681526020019081526020016000208190555050565b61099e6109986112ca565b826114d9565b6109dd576040517f08c379a00000000000000000000000000000000000000000000000000000000081526004016109d490612bd7565b60405180910390fd5b6109e883838361156e565b505050565b610a0883838360405180602001604052806000815250610e59565b505050565b600080610a1983611867565b9050600073ffffffffffffffffffffffffffffffffffffffff168173ffffffffffffffffffffffffffffffffffffffff1603610a8a576040517f08c379a0000000000000000000000000000000000000000000000000000000008152600401610a8190612c43565b60405180910390fd5b80915050919050565b60008073ffffffffffffffffffffffffffffffffffffffff168273ffffffffffffffffffffffffffffffffffffffff1603610b03576040517f08c379a0000000000000000000000000000000000000000000000000000000008152600401610afa90612cd5565b60405180910390fd5b600360008373ffffffffffffffffffffffffffffffffffffffff1673ffffffffffffffffffffffffffffffffffffffff168152602001908152602001600020549050919050565b600060606000806000600660003373ffffffffffffffffffffffffffffffffffffffff1673ffffffffffffffffffffffffffffffffffffffff1681526020019081526020016000205403610bd3576040517f08c379a0000000000000000000000000000000000000000000000000000000008152600401610bca90612b45565b60405180910390fd5b6000600660003373ffffffffffffffffffffffffffffffffffffffff1673ffffffffffffffffffffffffffffffffffffffff168152602001908152602001600020549050600060076000838152602001908152602001600020604051806060016040529081600082018054610c4790612726565b80601f0160208091040260200160405190810160405280929190818152602001828054610c7390612726565b8015610cc05780601f10610c9557610100808354040283529160200191610cc0565b820191906000526020600020905b815481529060010190602001808311610ca357829003601f168201915b50505050508152602001600182015481526020016002820154815250509050818160000151826020015183604001519550955095509550505090919293565b606060018054610d0e90612726565b80601f0160208091040260200160405190810160405280929190818152602001828054610d3a90612726565b8015610d875780601f10610d5c57610100808354040283529160200191610d87565b820191906000526020600020905b815481529060010190602001808311610d6a57829003601f168201915b5050505050905090565b610da3610d9c6112ca565b83836118a4565b5050565b6007602052806000526040600020600091509050806000018054610dca90612726565b80601f0160208091040260200160405190810160405280929190818152602001828054610df690612726565b8015610e435780601f10610e1857610100808354040283529160200191610e43565b820191906000526020600020905b815481529060010190602001808311610e2657829003601f168201915b5050505050908060010154908060020154905083565b610e6a610e646112ca565b836114d9565b610ea9576040517f08c379a0000000000000000000000000000000000000000000000000000000008152600401610ea090612bd7565b60405180910390fd5b610eb584848484611a10565b50505050565b6060610ec68261127f565b6000610ed0611a6c565b90506000815111610ef05760405180602001604052806000815250610f1b565b80610efa84611a83565b604051602001610f0b929190612d31565b6040516020818303038152906040525b915050919050565b6000600560008473ffffffffffffffffffffffffffffffffffffffff1673ffffffffffffffffffffffffffffffffffffffff16815260200190815260200160002060008373ffffffffffffffffffffffffffffffffffffffff1673ffffffffffffffffffffffffffffffffffffffff16815260200190815260200160002060009054906101000a900460ff16905092915050565b60007f01ffc9a7000000000000000000000000000000000000000000000000000000007bffffffffffffffffffffffffffffffffffffffffffffffffffffffff1916827bffffffffffffffffffffffffffffffffffffffffffffffffffffffff1916149050919050565b60008073ffffffffffffffffffffffffffffffffffffffff1661104383611867565b73ffffffffffffffffffffffffffffffffffffffff1614159050919050565b600073ffffffffffffffffffffffffffffffffffffffff168273ffffffffffffffffffffffffffffffffffffffff16036110d1576040517f08c379a00000000000000000000000000000000000000000000000000000000081526004016110c890612da1565b60405180910390fd5b6110da81611021565b1561111a576040517f08c379a000000000000000000000000000000000000000000000000000000000815260040161111190612e0d565b60405180910390fd5b611128600083836001611b51565b61113181611021565b15611171576040517f08c379a000000000000000000000000000000000000000000000000000000000815260040161116890612e0d565b60405180910390fd5b6001600360008473ffffffffffffffffffffffffffffffffffffffff1673ffffffffffffffffffffffffffffffffffffffff16815260200190815260200160002060008282540192505081905550816002600083815260200190815260200160002060006101000a81548173ffffffffffffffffffffffffffffffffffffffff021916908373ffffffffffffffffffffffffffffffffffffffff160217905550808273ffffffffffffffffffffffffffffffffffffffff16600073ffffffffffffffffffffffffffffffffffffffff167fddf252ad1be2c89b69c2b068fc378daa952ba7f163c4a11628f55a4df523b3ef60405160405180910390a461127b600083836001611b57565b5050565b61128881611021565b6112c7576040517f08c379a00000000000000000000000000000000000000000000000000000000081526004016112be90612c43565b60405180910390fd5b50565b600033905090565b816004600083815260200190815260200160002060006101000a81548173ffffffffffffffffffffffffffffffffffffffff021916908373ffffffffffffffffffffffffffffffffffffffff160217905550808273ffffffffffffffffffffffffffffffffffffffff1661134583610a0d565b73ffffffffffffffffffffffffffffffffffffffff167f8c5be1e5ebec7d5bd14f71427d1e84f3dd0314c0f7b2291e5b200ac8c7c3b92560405160405180910390a45050565b600061139682610a0d565b90506113a6816000846001611b51565b6113af82610a0d565b90506004600083815260200190815260200160002060006101000a81549073ffffffffffffffffffffffffffffffffffffffff02191690556001600360008373ffffffffffffffffffffffffffffffffffffffff1673ffffffffffffffffffffffffffffffffffffffff168152602001908152602001600020600082825403925050819055506002600083815260200190815260200160002060006101000a81549073ffffffffffffffffffffffffffffffffffffffff021916905581600073ffffffffffffffffffffffffffffffffffffffff168273ffffffffffffffffffffffffffffffffffffffff167fddf252ad1be2c89b69c2b068fc378daa952ba7f163c4a11628f55a4df523b3ef60405160405180910390a46114d5816000846001611b57565b5050565b6000806114e583610a0d565b90508073ffffffffffffffffffffffffffffffffffffffff168473ffffffffffffffffffffffffffffffffffffffff16148061152757506115268185610f23565b5b8061156557508373ffffffffffffffffffffffffffffffffffffffff1661154d84610722565b73ffffffffffffffffffffffffffffffffffffffff16145b91505092915050565b8273ffffffffffffffffffffffffffffffffffffffff1661158e82610a0d565b73ffffffffffffffffffffffffffffffffffffffff16146115e4576040517f08c379a00000000000000000000000000000000000000000000000000000000081526004016115db90612e9f565b60405180910390fd5b600073ffffffffffffffffffffffffffffffffffffffff168273ffffffffffffffffffffffffffffffffffffffff1603611653576040517f08c379a000000000000000000000000000000000000000000000000000000000815260040161164a90612f31565b60405180910390fd5b6116608383836001611b51565b8273ffffffffffffffffffffffffffffffffffffffff1661168082610a0d565b73ffffffffffffffffffffffffffffffffffffffff16146116d6576040517f08c379a00000000000000000000000000000000000000000000000000000000081526004016116cd90612e9f565b60405180910390fd5b6004600082815260200190815260200160002060006101000a81549073ffffffffffffffffffffffffffffffffffffffff02191690556001600360008573ffffffffffffffffffffffffffffffffffffffff1673ffffffffffffffffffffffffffffffffffffffff168152602001908152602001600020600082825403925050819055506001600360008473ffffffffffffffffffffffffffffffffffffffff1673ffffffffffffffffffffffffffffffffffffffff16815260200190815260200160002060008282540192505081905550816002600083815260200190815260200160002060006101000a81548173ffffffffffffffffffffffffffffffffffffffff021916908373ffffffffffffffffffffffffffffffffffffffff160217905550808273ffffffffffffffffffffffffffffffffffffffff168473ffffffffffffffffffffffffffffffffffffffff167fddf252ad1be2c89b69c2b068fc378daa952ba7f163c4a11628f55a4df523b3ef60405160405180910390a46118628383836001611b57565b505050565b60006002600083815260200190815260200160002060009054906101000a900473ffffffffffffffffffffffffffffffffffffffff169050919050565b8173ffffffffffffffffffffffffffffffffffffffff168373ffffffffffffffffffffffffffffffffffffffff1603611912576040517f08c379a000000000000000000000000000000000000000000000000000000000815260040161190990612f9d565b60405180910390fd5b80600560008573ffffffffffffffffffffffffffffffffffffffff1673ffffffffffffffffffffffffffffffffffffffff16815260200190815260200160002060008473ffffffffffffffffffffffffffffffffffffffff1673ffffffffffffffffffffffffffffffffffffffff16815260200190815260200160002060006101000a81548160ff0219169083151502179055508173ffffffffffffffffffffffffffffffffffffffff168373ffffffffffffffffffffffffffffffffffffffff167f17307eab39ab6107e8899845ad3d59bd9653f200f220920489ca2b5937696c3183604051611a039190611f6b565b60405180910390a3505050565b611a1b84848461156e565b611a2784848484611b5d565b611a66576040517f08c379a0000000000000000000000000000000000000000000000000000000008152600401611a5d9061302f565b60405180910390fd5b50505050565b606060405180602001604052806000815250905090565b606060006001611a9284611ce4565b01905060008167ffffffffffffffff811115611ab157611ab0611fd7565b5b6040519080825280601f01601f191660200182016040528015611ae35781602001600182028036833780820191505090505b509050600082602001820190505b600115611b46578080600190039150507f3031323334353637383961626364656600000000000000000000000000000000600a86061a8153600a8581611b3a57611b3961304f565b5b04945060008503611af1575b819350505050919050565b50505050565b50505050565b6000611b7e8473ffffffffffffffffffffffffffffffffffffffff16611e37565b15611cd7578373ffffffffffffffffffffffffffffffffffffffff1663150b7a02611ba76112ca565b8786866040518563ffffffff1660e01b8152600401611bc994939291906130d3565b6020604051808303816000875af1925050508015611c0557506040513d601f19601f82011682018060405250810190611c029190613134565b60015b611c87573d8060008114611c35576040519150601f19603f3d011682016040523d82523d6000602084013e611c3a565b606091505b506000815103611c7f576040517f08c379a0000000000000000000000000000000000000000000000000000000008152600401611c769061302f565b60405180910390fd5b805181602001fd5b63150b7a0260e01b7bffffffffffffffffffffffffffffffffffffffffffffffffffffffff1916817bffffffffffffffffffffffffffffffffffffffffffffffffffffffff191614915050611cdc565b600190505b949350505050565b600080600090507a184f03e93ff9f4daa797ed6e38ed64bf6a1f0100000000000000008310611d42577a184f03e93ff9f4daa797ed6e38ed64bf6a1f0100000000000000008381611d3857611d3761304f565b5b0492506040810190505b6d04ee2d6d415b85acef81000000008310611d7f576d04ee2d6d415b85acef81000000008381611d7557611d7461304f565b5b0492506020810190505b662386f26fc100008310611dae57662386f26fc100008381611da457611da361304f565b5b0492506010810190505b6305f5e1008310611dd7576305f5e1008381611dcd57611dcc61304f565b5b0492506008810190505b6127108310611dfc576127108381611df257611df161304f565b5b0492506004810190505b60648310611e1f5760648381611e1557611e1461304f565b5b0492506002810190505b600a8310611e2e576001810190505b80915050919050565b6000808273ffffffffffffffffffffffffffffffffffffffff163b119050919050565b508054611e6690612726565b6000825580601f10611e785750611e97565b601f016020900490600052602060002090810190611e969190611e9a565b5b50565b5b80821115611eb3576000816000905550600101611e9b565b5090565b6000604051905090565b600080fd5b600080fd5b60007fffffffff0000000000000000000000000000000000000000000000000000000082169050919050565b611f0081611ecb565b8114611f0b57600080fd5b50565b600081359050611f1d81611ef7565b92915050565b600060208284031215611f3957611f38611ec1565b5b6000611f4784828501611f0e565b91505092915050565b60008115159050919050565b611f6581611f50565b82525050565b6000602082019050611f806000830184611f5c565b92915050565b6000819050919050565b611f9981611f86565b8114611fa457600080fd5b50565b600081359050611fb681611f90565b92915050565b600080fd5b600080fd5b6000601f19601f8301169050919050565b7f4e487b7100000000000000000000000000000000000000000000000000000000600052604160045260246000fd5b61200f82611fc6565b810181811067ffffffffffffffff8211171561202e5761202d611fd7565b5b80604052505050565b6000612041611eb7565b905061204d8282612006565b919050565b600067ffffffffffffffff82111561206d5761206c611fd7565b5b61207682611fc6565b9050602081019050919050565b82818337600083830152505050565b60006120a56120a084612052565b612037565b9050828152602081018484840111156120c1576120c0611fc1565b5b6120cc848285612083565b509392505050565b600082601f8301126120e9576120e8611fbc565b5b81356120f9848260208601612092565b91505092915050565b6000806000806080858703121561211c5761211b611ec1565b5b600061212a87828801611fa7565b945050602085013567ffffffffffffffff81111561214b5761214a611ec6565b5b612157878288016120d4565b935050604061216887828801611fa7565b925050606061217987828801611fa7565b91505092959194509250565b600081519050919050565b600082825260208201905092915050565b60005b838110156121bf5780820151818401526020810190506121a4565b60008484015250505050565b60006121d682612185565b6121e08185612190565b93506121f08185602086016121a1565b6121f981611fc6565b840191505092915050565b6000602082019050818103600083015261221e81846121cb565b905092915050565b60006020828403121561223c5761223b611ec1565b5b600061224a84828501611fa7565b91505092915050565b600073ffffffffffffffffffffffffffffffffffffffff82169050919050565b600061227e82612253565b9050919050565b61228e81612273565b82525050565b60006020820190506122a96000830184612285565b92915050565b6122b881612273565b81146122c357600080fd5b50565b6000813590506122d5816122af565b92915050565b600080604083850312156122f2576122f1611ec1565b5b6000612300858286016122c6565b925050602061231185828601611fa7565b9150509250929050565b60008060006060848603121561233457612333611ec1565b5b6000612342868287016122c6565b9350506020612353868287016122c6565b925050604061236486828701611fa7565b9150509250925092565b60006020828403121561238457612383611ec1565b5b6000612392848285016122c6565b91505092915050565b6123a481611f86565b82525050565b60006020820190506123bf600083018461239b565b92915050565b60006080820190506123da600083018761239b565b81810360208301526123ec81866121cb565b90506123fb604083018561239b565b612408606083018461239b565b95945050505050565b61241a81611f50565b811461242557600080fd5b50565b60008135905061243781612411565b92915050565b6000806040838503121561245457612453611ec1565b5b6000612462858286016122c6565b925050602061247385828601612428565b9150509250929050565b6000606082019050818103600083015261249781866121cb565b90506124a6602083018561239b565b6124b3604083018461239b565b949350505050565b600067ffffffffffffffff8211156124d6576124d5611fd7565b5b6124df82611fc6565b9050602081019050919050565b60006124ff6124fa846124bb565b612037565b90508281526020810184848401111561251b5761251a611fc1565b5b612526848285612083565b509392505050565b600082601f83011261254357612542611fbc565b5b81356125538482602086016124ec565b91505092915050565b6000806000806080858703121561257657612575611ec1565b5b6000612584878288016122c6565b9450506020612595878288016122c6565b93505060406125a687828801611fa7565b925050606085013567ffffffffffffffff8111156125c7576125c6611ec6565b5b6125d38782880161252e565b91505092959194509250565b600080604083850312156125f6576125f5611ec1565b5b6000612604858286016122c6565b9250506020612615858286016122c6565b9150509250929050565b7f4572726f723a204e465420616c7265616479206578697374732e000000000000600082015250565b6000612655601a83612190565b91506126608261261f565b602082019050919050565b6000602082019050818103600083015261268481612648565b9050919050565b7f4572726f723a205573657220616c7265616479206f776e7320616e204e46542e600082015250565b60006126c1602083612190565b91506126cc8261268b565b602082019050919050565b600060208201905081810360008301526126f0816126b4565b9050919050565b7f4e487b7100000000000000000000000000000000000000000000000000000000600052602260045260246000fd5b6000600282049050600182168061273e57607f821691505b602082108103612751576127506126f7565b5b50919050565b60008190508160005260206000209050919050565b60006020601f8301049050919050565b600082821b905092915050565b6000600883026127b97fffffffffffffffffffffffffffffffffffffffffffffffffffffffffffffffff8261277c565b6127c3868361277c565b95508019841693508086168417925050509392505050565b6000819050919050565b60006128006127fb6127f684611f86565b6127db565b611f86565b9050919050565b6000819050919050565b61281a836127e5565b61282e61282682612807565b848454612789565b825550505050565b600090565b612843612836565b61284e818484612811565b505050565b5b818110156128725761286760008261283b565b600181019050612854565b5050565b601f8211156128b75761288881612757565b6128918461276c565b810160208510156128a0578190505b6128b46128ac8561276c565b830182612853565b50505b505050565b600082821c905092915050565b60006128da600019846008026128bc565b1980831691505092915050565b60006128f383836128c9565b9150826002028217905092915050565b61290c82612185565b67ffffffffffffffff81111561292557612924611fd7565b5b61292f8254612726565b61293a828285612876565b600060209050601f83116001811461296d576000841561295b578287015190505b61296585826128e7565b8655506129cd565b601f19841661297b86612757565b60005b828110156129a35784890151825560018201915060208501945060208101905061297e565b868310156129c057848901516129bc601f8916826128c9565b8355505b6001600288020188555050505b505050505050565b7f4552433732313a20617070726f76616c20746f2063757272656e74206f776e6560008201527f7200000000000000000000000000000000000000000000000000000000000000602082015250565b6000612a31602183612190565b9150612a3c826129d5565b604082019050919050565b60006020820190508181036000830152612a6081612a24565b9050919050565b7f4552433732313a20617070726f76652063616c6c6572206973206e6f7420746f60008201527f6b656e206f776e6572206f7220617070726f76656420666f7220616c6c000000602082015250565b6000612ac3603d83612190565b9150612ace82612a67565b604082019050919050565b60006020820190508181036000830152612af281612ab6565b9050919050565b7f4572726f723a205573657220646f6573206e6f74206f776e20616e204e46542e600082015250565b6000612b2f602083612190565b9150612b3a82612af9565b602082019050919050565b60006020820190508181036000830152612b5e81612b22565b9050919050565b7f4552433732313a2063616c6c6572206973206e6f7420746f6b656e206f776e6560008201527f72206f7220617070726f76656400000000000000000000000000000000000000602082015250565b6000612bc1602d83612190565b9150612bcc82612b65565b604082019050919050565b60006020820190508181036000830152612bf081612bb4565b9050919050565b7f4552433732313a20696e76616c696420746f6b656e2049440000000000000000600082015250565b6000612c2d601883612190565b9150612c3882612bf7565b602082019050919050565b60006020820190508181036000830152612c5c81612c20565b9050919050565b7f4552433732313a2061646472657373207a65726f206973206e6f74206120766160008201527f6c6964206f776e65720000000000000000000000000000000000000000000000602082015250565b6000612cbf602983612190565b9150612cca82612c63565b604082019050919050565b60006020820190508181036000830152612cee81612cb2565b9050919050565b600081905092915050565b6000612d0b82612185565b612d158185612cf5565b9350612d258185602086016121a1565b80840191505092915050565b6000612d3d8285612d00565b9150612d498284612d00565b91508190509392505050565b7f4552433732313a206d696e7420746f20746865207a65726f2061646472657373600082015250565b6000612d8b602083612190565b9150612d9682612d55565b602082019050919050565b60006020820190508181036000830152612dba81612d7e565b9050919050565b7f4552433732313a20746f6b656e20616c7265616479206d696e74656400000000600082015250565b6000612df7601c83612190565b9150612e0282612dc1565b602082019050919050565b60006020820190508181036000830152612e2681612dea565b9050919050565b7f4552433732313a207472616e736665722066726f6d20696e636f72726563742060008201527f6f776e6572000000000000000000000000000000000000000000000000000000602082015250565b6000612e89602583612190565b9150612e9482612e2d565b604082019050919050565b60006020820190508181036000830152612eb881612e7c565b9050919050565b7f4552433732313a207472616e7366657220746f20746865207a65726f2061646460008201527f7265737300000000000000000000000000000000000000000000000000000000602082015250565b6000612f1b602483612190565b9150612f2682612ebf565b604082019050919050565b60006020820190508181036000830152612f4a81612f0e565b9050919050565b7f4552433732313a20617070726f766520746f2063616c6c657200000000000000600082015250565b6000612f87601983612190565b9150612f9282612f51565b602082019050919050565b60006020820190508181036000830152612fb681612f7a565b9050919050565b7f4552433732313a207472616e7366657220746f206e6f6e20455243373231526560008201527f63656976657220696d706c656d656e7465720000000000000000000000000000602082015250565b6000613019603283612190565b915061302482612fbd565b604082019050919050565b600060208201905081810360008301526130488161300c565b9050919050565b7f4e487b7100000000000000000000000000000000000000000000000000000000600052601260045260246000fd5b600081519050919050565b600082825260208201905092915050565b60006130a58261307e565b6130af8185613089565b93506130bf8185602086016121a1565b6130c881611fc6565b840191505092915050565b60006080820190506130e86000830187612285565b6130f56020830186612285565b613102604083018561239b565b8181036060830152613114818461309a565b905095945050505050565b60008151905061312e81611ef7565b92915050565b60006020828403121561314a57613149611ec1565b5b60006131588482850161311f565b9150509291505056fea2646970667358221220f396dfc9f34f24b8126cfc324317c2e1a322f47c5a4b218620c855894e7208f964736f6c63430008120033",
  "linkReferences": {},
  "deployedLinkReferences": {}
}